{
  "contractName": "SmartVendingMachine",
  "abi": [
    {
      "anonymous": false,
      "inputs": [
        {
          "indexed": true,
          "internalType": "uint256",
          "name": "deliveryNumber",
          "type": "uint256"
        },
        {
          "indexed": false,
          "internalType": "uint256",
          "name": "pickupTime",
          "type": "uint256"
        }
      ],
      "name": "FoodPickedUp",
      "type": "event"
    },
    {
      "anonymous": false,
      "inputs": [
        {
          "indexed": true,
          "internalType": "uint256",
          "name": "deliveryNumber",
          "type": "uint256"
        },
        {
          "indexed": false,
          "internalType": "uint256",
          "name": "deliveryTime",
          "type": "uint256"
        },
        {
          "indexed": false,
          "internalType": "address",
          "name": "addedBy",
          "type": "address"
        }
      ],
      "name": "NewFoodDeliveryAdded",
      "type": "event"
    },
    {
      "inputs": [
        {
          "internalType": "uint256",
          "name": "",
          "type": "uint256"
        }
      ],
      "name": "deliveries",
      "outputs": [
        {
          "internalType": "uint256",
          "name": "deliveryNumber",
          "type": "uint256"
        },
        {
          "internalType": "uint256",
          "name": "deliveryTime",
          "type": "uint256"
        },
        {
          "internalType": "uint256",
          "name": "pickupTime",
          "type": "uint256"
        },
        {
          "internalType": "address",
          "name": "addedBy",
          "type": "address"
        }
      ],
      "stateMutability": "view",
      "type": "function",
      "constant": true
    },
    {
      "inputs": [
        {
          "internalType": "uint256",
          "name": "_deliveryNumber",
          "type": "uint256"
        }
      ],
      "name": "getFoodDelivery",
      "outputs": [
        {
          "internalType": "uint256",
          "name": "",
          "type": "uint256"
        },
        {
          "internalType": "uint256",
          "name": "",
          "type": "uint256"
        },
        {
          "internalType": "uint256",
          "name": "",
          "type": "uint256"
        },
        {
          "internalType": "address",
          "name": "",
          "type": "address"
        }
      ],
      "stateMutability": "view",
      "type": "function",
      "constant": true
    },
    {
      "inputs": [
        {
          "internalType": "uint256",
          "name": "_deliveryNumber",
          "type": "uint256"
        },
        {
          "internalType": "uint256",
          "name": "_deliveryTime",
          "type": "uint256"
        }
      ],
      "name": "addFoodDelivery",
      "outputs": [],
      "stateMutability": "nonpayable",
      "type": "function"
    },
    {
      "inputs": [
        {
          "internalType": "uint256",
          "name": "_deliveryNumber",
          "type": "uint256"
        }
      ],
      "name": "pickUpFood",
      "outputs": [],
      "stateMutability": "nonpayable",
      "type": "function"
    }
  ],
  "bytecode": "0x608060405234801561001057600080fd5b506108a9806100206000396000f3fe608060405234801561001057600080fd5b5060043610610069576000357c01000000000000000000000000000000000000000000000000000000009004806345750cc71461006e578063537fd7e91461008a578063a9e4a324146100bd578063c2903678146100f0575b600080fd5b61008860048036038101906100839190610546565b61010c565b005b6100a4600480360381019061009f9190610586565b610254565b6040516100b49493929190610603565b60405180910390f35b6100d760048036038101906100d29190610586565b610313565b6040516100e79493929190610603565b60405180910390f35b61010a60048036038101906101059190610586565b610363565b005b60008060008481526020019081526020016000206000015414610164576040517f08c379a000000000000000000000000000000000000000000000000000000000815260040161015b906106a5565b60405180910390fd5b6040518060800160405280838152602001828152602001600081526020013373ffffffffffffffffffffffffffffffffffffffff1681525060008084815260200190815260200160002060008201518160000155602082015181600101556040820151816002015560608201518160030160006101000a81548173ffffffffffffffffffffffffffffffffffffffff021916908373ffffffffffffffffffffffffffffffffffffffff160217905550905050817f67ea38e55cf38335a19d1efac405dc23c6fb2073e83a207cc86511399bfad15e82336040516102489291906106c5565b60405180910390a25050565b60008060008060008060008781526020019081526020016000206040518060800160405290816000820154815260200160018201548152602001600282015481526020016003820160009054906101000a900473ffffffffffffffffffffffffffffffffffffffff1673ffffffffffffffffffffffffffffffffffffffff1673ffffffffffffffffffffffffffffffffffffffff1681525050905080600001518160200151826040015183606001519450945094509450509193509193565b60006020528060005260406000206000915090508060000154908060010154908060020154908060030160009054906101000a900473ffffffffffffffffffffffffffffffffffffffff16905084565b600080600083815260200190815260200160002060000154036103bb576040517f08c379a00000000000000000000000000000000000000000000000000000000081526004016103b29061073a565b60405180910390fd5b60008060008381526020019081526020016000206002015414610413576040517f08c379a000000000000000000000000000000000000000000000000000000000815260040161040a906107a6565b60405180910390fd5b60008082815260200190815260200160002060030160009054906101000a900473ffffffffffffffffffffffffffffffffffffffff1673ffffffffffffffffffffffffffffffffffffffff163373ffffffffffffffffffffffffffffffffffffffff16146104b6576040517f08c379a00000000000000000000000000000000000000000000000000000000081526004016104ad90610838565b60405180910390fd5b4260008083815260200190815260200160002060020181905550807f541cfb6f44bd38e5f6ea9c82e5ac6df64b013cd5d0ed5cae2800fe65bf2e587c426040516105009190610858565b60405180910390a250565b600080fd5b6000819050919050565b61052381610510565b811461052e57600080fd5b50565b6000813590506105408161051a565b92915050565b6000806040838503121561055d5761055c61050b565b5b600061056b85828601610531565b925050602061057c85828601610531565b9150509250929050565b60006020828403121561059c5761059b61050b565b5b60006105aa84828501610531565b91505092915050565b6105bc81610510565b82525050565b600073ffffffffffffffffffffffffffffffffffffffff82169050919050565b60006105ed826105c2565b9050919050565b6105fd816105e2565b82525050565b600060808201905061061860008301876105b3565b61062560208301866105b3565b61063260408301856105b3565b61063f60608301846105f4565b95945050505050565b600082825260208201905092915050565b7f44656c6976657279206e756d62657220616c7265616479206578697374730000600082015250565b600061068f601e83610648565b915061069a82610659565b602082019050919050565b600060208201905081810360008301526106be81610682565b9050919050565b60006040820190506106da60008301856105b3565b6106e760208301846105f4565b9392505050565b7f44656c6976657279206e756d62657220646f6573206e6f742065786973740000600082015250565b6000610724601e83610648565b915061072f826106ee565b602082019050919050565b6000602082019050818103600083015261075381610717565b9050919050565b7f466f6f6420616c7265616479207069636b656420757000000000000000000000600082015250565b6000610790601683610648565b915061079b8261075a565b602082019050919050565b600060208201905081810360008301526107bf81610783565b9050919050565b7f596f7520617265206e6f7420617574686f72697a656420746f207069636b207560008201527f70207468697320666f6f64000000000000000000000000000000000000000000602082015250565b6000610822602b83610648565b915061082d826107c6565b604082019050919050565b6000602082019050818103600083015261085181610815565b9050919050565b600060208201905061086d60008301846105b3565b9291505056fea2646970667358221220cc9f30ee01d6fdf87add381164ae539506d3a57703d58aa335d44a1b9a7ced7964736f6c63430008150033",
  "immutableReferences": {},
  "source": "// SPDX-License-Identifier: GPL-3.0 \r\n\r\npragma solidity ^0.8.0;\r\n\r\ncontract SmartVendingMachine {\r\n    // \r\n    struct FoodDelivery {\r\n        uint256 deliveryNumber;\r\n        uint256 deliveryTime;\r\n        uint256 pickupTime;\r\n        address addedBy; // \r\n    }\r\n\r\n    // \r\n    mapping(uint256 => FoodDelivery) public deliveries;\r\n    \r\n    // \r\n    event NewFoodDeliveryAdded(uint256 indexed deliveryNumber, uint256 deliveryTime, address addedBy);\r\n    event FoodPickedUp(uint256 indexed deliveryNumber, uint256 pickupTime);\r\n    \r\n    // \r\n    function getFoodDelivery(uint256 _deliveryNumber) public view returns (uint256, uint256, uint256, address) {\r\n        FoodDelivery memory delivery = deliveries[_deliveryNumber];\r\n        return (delivery.deliveryNumber, delivery.deliveryTime, delivery.pickupTime, delivery.addedBy);\r\n    }\r\n    \r\n    // \r\n    function addFoodDelivery(uint256 _deliveryNumber, uint256 _deliveryTime) public {\r\n        // \r\n        require(deliveries[_deliveryNumber].deliveryNumber == 0, \"Delivery number already exists\");\r\n    \r\n        // \r\n        deliveries[_deliveryNumber] = FoodDelivery({\r\n            deliveryNumber: _deliveryNumber,\r\n            deliveryTime: _deliveryTime,\r\n            pickupTime: 0,\r\n            addedBy: msg.sender\r\n        });\r\n    \r\n        // \r\n        emit NewFoodDeliveryAdded(_deliveryNumber, _deliveryTime, msg.sender);\r\n    }\r\n    \r\n    // \r\n    function pickUpFood(uint256 _deliveryNumber) public {\r\n        // \r\n        require(deliveries[_deliveryNumber].deliveryNumber != 0, \"Delivery number does not exist\");\r\n        require(deliveries[_deliveryNumber].pickupTime == 0, \"Food already picked up\");\r\n    \r\n        // \r\n        require(msg.sender == deliveries[_deliveryNumber].addedBy, \"You are not authorized to pick up this food\");\r\n    \r\n        // \r\n        deliveries[_deliveryNumber].pickupTime = block.timestamp;\r\n    \r\n        // \r\n        emit FoodPickedUp(_deliveryNumber, block.timestamp);\r\n    }\r\n}",
  "sourcePath": "D:\\2024.3\\\\contract\\contracts\\SmartVendingMachine.sol",
  "compiler": {
    "name": "solc",
    "version": "0.8.21+commit.d9974bed.Emscripten.clang"
  },
  "schemaVersion": "3.4.16",
  "updatedAt": "2024-04-24T11:41:55.147Z",
  "networkType": "ethereum",
  "devdoc": {
    "kind": "dev",
    "methods": {},
    "version": 1
  },
  "userdoc": {
    "kind": "user",
    "methods": {},
    "version": 1
  }
}